{
  "contractName": "Voting",
  "abi": [
    {
      "inputs": [
        {
          "internalType": "address[]",
          "name": "_privilegedVoters",
          "type": "address[]"
        }
      ],
      "stateMutability": "nonpayable",
      "type": "constructor"
    },
    {
      "inputs": [
        {
          "internalType": "uint256",
          "name": "",
          "type": "uint256"
        }
      ],
      "name": "candidates",
      "outputs": [
        {
          "internalType": "string",
          "name": "name",
          "type": "string"
        },
        {
          "internalType": "uint256",
          "name": "id",
          "type": "uint256"
        },
        {
          "internalType": "uint256",
          "name": "voteCount",
          "type": "uint256"
        }
      ],
      "stateMutability": "view",
      "type": "function",
      "constant": true
    },
    {
      "inputs": [
        {
          "internalType": "uint256",
          "name": "",
          "type": "uint256"
        }
      ],
      "name": "privilegedVoters",
      "outputs": [
        {
          "internalType": "address",
          "name": "",
          "type": "address"
        }
      ],
      "stateMutability": "view",
      "type": "function",
      "constant": true
    },
    {
      "inputs": [
        {
          "internalType": "address",
          "name": "",
          "type": "address"
        }
      ],
      "name": "voters",
      "outputs": [
        {
          "internalType": "uint256",
          "name": "id",
          "type": "uint256"
        },
        {
          "internalType": "bool",
          "name": "isVoted",
          "type": "bool"
        },
        {
          "internalType": "bool",
          "name": "isPrivileged",
          "type": "bool"
        }
      ],
      "stateMutability": "view",
      "type": "function",
      "constant": true
    },
    {
      "inputs": [
        {
          "internalType": "string",
          "name": "_name",
          "type": "string"
        }
      ],
      "name": "addCandidate",
      "outputs": [],
      "stateMutability": "nonpayable",
      "type": "function"
    },
    {
      "inputs": [
        {
          "internalType": "uint256",
          "name": "_candidateId",
          "type": "uint256"
        }
      ],
      "name": "vote",
      "outputs": [],
      "stateMutability": "nonpayable",
      "type": "function"
    },
    {
      "inputs": [],
      "name": "getCandidates",
      "outputs": [
        {
          "components": [
            {
              "internalType": "string",
              "name": "name",
              "type": "string"
            },
            {
              "internalType": "uint256",
              "name": "id",
              "type": "uint256"
            },
            {
              "internalType": "uint256",
              "name": "voteCount",
              "type": "uint256"
            }
          ],
          "internalType": "struct Voting.Candidate[]",
          "name": "",
          "type": "tuple[]"
        }
      ],
      "stateMutability": "view",
      "type": "function",
      "constant": true
    },
    {
      "inputs": [
        {
          "internalType": "uint256",
          "name": "_candidateId",
          "type": "uint256"
        }
      ],
      "name": "getVoteCount",
      "outputs": [
        {
          "internalType": "uint256",
          "name": "",
          "type": "uint256"
        }
      ],
      "stateMutability": "view",
      "type": "function",
      "constant": true
    }
  ],
  "bytecode": "0x60806040523480156200001157600080fd5b50604051620015303803806200153083398181016040528101906200003791906200039a565b60005b8151811015620001a457604051806060016040528082815260200160001515815260200160011515815250600160008484815181106200007f576200007e620003eb565b5b602002602001015173ffffffffffffffffffffffffffffffffffffffff1673ffffffffffffffffffffffffffffffffffffffff1681526020019081526020016000206000820151816000015560208201518160010160006101000a81548160ff02191690831515021790555060408201518160010160016101000a81548160ff0219169083151502179055509050506000828281518110620001265762000125620003eb565b5b60200260200101519080600181540180825580915050600190039060005260206000200160009091909190916101000a81548173ffffffffffffffffffffffffffffffffffffffff021916908373ffffffffffffffffffffffffffffffffffffffff16021790555080806200019b9062000453565b9150506200003a565b5050620004a0565b6000604051905090565b600080fd5b600080fd5b600080fd5b6000601f19601f8301169050919050565b7f4e487b7100000000000000000000000000000000000000000000000000000000600052604160045260246000fd5b6200021082620001c5565b810181811067ffffffffffffffff82111715620002325762000231620001d6565b5b80604052505050565b600062000247620001ac565b905062000255828262000205565b919050565b600067ffffffffffffffff821115620002785762000277620001d6565b5b602082029050602081019050919050565b600080fd5b600073ffffffffffffffffffffffffffffffffffffffff82169050919050565b6000620002bb826200028e565b9050919050565b620002cd81620002ae565b8114620002d957600080fd5b50565b600081519050620002ed81620002c2565b92915050565b60006200030a62000304846200025a565b6200023b565b9050808382526020820190506020840283018581111562000330576200032f62000289565b5b835b818110156200035d5780620003488882620002dc565b84526020840193505060208101905062000332565b5050509392505050565b600082601f8301126200037f576200037e620001c0565b5b815162000391848260208601620002f3565b91505092915050565b600060208284031215620003b357620003b2620001b6565b5b600082015167ffffffffffffffff811115620003d457620003d3620001bb565b5b620003e28482850162000367565b91505092915050565b7f4e487b7100000000000000000000000000000000000000000000000000000000600052603260045260246000fd5b7f4e487b7100000000000000000000000000000000000000000000000000000000600052601160045260246000fd5b6000819050919050565b6000620004608262000449565b91507fffffffffffffffffffffffffffffffffffffffffffffffffffffffffffffffff82036200049557620004946200041a565b5b600182019050919050565b61108080620004b06000396000f3fe608060405234801561001057600080fd5b506004361061007d5760003560e01c8063393032fe1161005b578063393032fe146100ee578063462e91ec1461011e578063a3ec138d1461013a578063b2c2f2e81461016c5761007d565b80630121b93f1461008257806306a49fce1461009e5780633477ee2e146100bc575b600080fd5b61009c60048036038101906100979190610691565b61019c565b005b6100a6610353565b6040516100b3919061086f565b60405180910390f35b6100d660048036038101906100d19190610691565b610458565b6040516100e5939291906108ea565b60405180910390f35b61010860048036038101906101039190610691565b61051a565b6040516101159190610969565b60405180910390f35b61013860048036038101906101339190610ab9565b610559565b005b610154600480360381019061014f9190610b2e565b6105d4565b60405161016393929190610b76565b60405180910390f35b61018660048036038101906101819190610691565b610618565b6040516101939190610bad565b60405180910390f35b600160003373ffffffffffffffffffffffffffffffffffffffff1673ffffffffffffffffffffffffffffffffffffffff16815260200190815260200160002060010160019054906101000a900460ff1661022b576040517f08c379a000000000000000000000000000000000000000000000000000000000815260040161022290610c3a565b60405180910390fd5b600160003373ffffffffffffffffffffffffffffffffffffffff1673ffffffffffffffffffffffffffffffffffffffff16815260200190815260200160002060010160009054906101000a900460ff16156102bb576040517f08c379a00000000000000000000000000000000000000000000000000000000081526004016102b290610ca6565b60405180910390fd5b60018060003373ffffffffffffffffffffffffffffffffffffffff1673ffffffffffffffffffffffffffffffffffffffff16815260200190815260200160002060010160006101000a81548160ff0219169083151502179055506002818154811061032957610328610cc6565b5b9060005260206000209060030201600201600081548092919061034b90610d24565b919050555050565b60606002805480602002602001604051908101604052809291908181526020016000905b8282101561044f57838290600052602060002090600302016040518060600160405290816000820180546103aa90610d9b565b80601f01602080910402602001604051908101604052809291908181526020018280546103d690610d9b565b80156104235780601f106103f857610100808354040283529160200191610423565b820191906000526020600020905b81548152906001019060200180831161040657829003601f168201915b505050505081526020016001820154815260200160028201548152505081526020019060010190610377565b50505050905090565b6002818154811061046857600080fd5b906000526020600020906003020160009150905080600001805461048b90610d9b565b80601f01602080910402602001604051908101604052809291908181526020018280546104b790610d9b565b80156105045780601f106104d957610100808354040283529160200191610504565b820191906000526020600020905b8154815290600101906020018083116104e757829003601f168201915b5050505050908060010154908060020154905083565b6000818154811061052a57600080fd5b906000526020600020016000915054906101000a900473ffffffffffffffffffffffffffffffffffffffff1681565b6002604051806060016040528083815260200160028054905081526020016000815250908060018154018082558091505060019003906000526020600020906003020160009091909190915060008201518160000190816105ba9190610f78565b506020820151816001015560408201518160020155505050565b60016020528060005260406000206000915090508060000154908060010160009054906101000a900460ff16908060010160019054906101000a900460ff16905083565b60006002828154811061062e5761062d610cc6565b5b9060005260206000209060030201600201549050919050565b6000604051905090565b600080fd5b600080fd5b6000819050919050565b61066e8161065b565b811461067957600080fd5b50565b60008135905061068b81610665565b92915050565b6000602082840312156106a7576106a6610651565b5b60006106b58482850161067c565b91505092915050565b600081519050919050565b600082825260208201905092915050565b6000819050602082019050919050565b600081519050919050565b600082825260208201905092915050565b60005b83811015610724578082015181840152602081019050610709565b60008484015250505050565b6000601f19601f8301169050919050565b600061074c826106ea565b61075681856106f5565b9350610766818560208601610706565b61076f81610730565b840191505092915050565b6107838161065b565b82525050565b600060608301600083015184820360008601526107a68282610741565b91505060208301516107bb602086018261077a565b5060408301516107ce604086018261077a565b508091505092915050565b60006107e58383610789565b905092915050565b6000602082019050919050565b6000610805826106be565b61080f81856106c9565b935083602082028501610821856106da565b8060005b8581101561085d578484038952815161083e85826107d9565b9450610849836107ed565b925060208a01995050600181019050610825565b50829750879550505050505092915050565b6000602082019050818103600083015261088981846107fa565b905092915050565b600082825260208201905092915050565b60006108ad826106ea565b6108b78185610891565b93506108c7818560208601610706565b6108d081610730565b840191505092915050565b6108e48161065b565b82525050565b6000606082019050818103600083015261090481866108a2565b905061091360208301856108db565b61092060408301846108db565b949350505050565b600073ffffffffffffffffffffffffffffffffffffffff82169050919050565b600061095382610928565b9050919050565b61096381610948565b82525050565b600060208201905061097e600083018461095a565b92915050565b600080fd5b600080fd5b7f4e487b7100000000000000000000000000000000000000000000000000000000600052604160045260246000fd5b6109c682610730565b810181811067ffffffffffffffff821117156109e5576109e461098e565b5b80604052505050565b60006109f8610647565b9050610a0482826109bd565b919050565b600067ffffffffffffffff821115610a2457610a2361098e565b5b610a2d82610730565b9050602081019050919050565b82818337600083830152505050565b6000610a5c610a5784610a09565b6109ee565b905082815260208101848484011115610a7857610a77610989565b5b610a83848285610a3a565b509392505050565b600082601f830112610aa057610a9f610984565b5b8135610ab0848260208601610a49565b91505092915050565b600060208284031215610acf57610ace610651565b5b600082013567ffffffffffffffff811115610aed57610aec610656565b5b610af984828501610a8b565b91505092915050565b610b0b81610948565b8114610b1657600080fd5b50565b600081359050610b2881610b02565b92915050565b600060208284031215610b4457610b43610651565b5b6000610b5284828501610b19565b91505092915050565b60008115159050919050565b610b7081610b5b565b82525050565b6000606082019050610b8b60008301866108db565b610b986020830185610b67565b610ba56040830184610b67565b949350505050565b6000602082019050610bc260008301846108db565b92915050565b7f596f7520646f206e6f7420686176652074686520726967687420746f20766f7460008201527f6500000000000000000000000000000000000000000000000000000000000000602082015250565b6000610c24602183610891565b9150610c2f82610bc8565b604082019050919050565b60006020820190508181036000830152610c5381610c17565b9050919050565b7f596f75206861766520616c726561647920766f74656400000000000000000000600082015250565b6000610c90601683610891565b9150610c9b82610c5a565b602082019050919050565b60006020820190508181036000830152610cbf81610c83565b9050919050565b7f4e487b7100000000000000000000000000000000000000000000000000000000600052603260045260246000fd5b7f4e487b7100000000000000000000000000000000000000000000000000000000600052601160045260246000fd5b6000610d2f8261065b565b91507fffffffffffffffffffffffffffffffffffffffffffffffffffffffffffffffff8203610d6157610d60610cf5565b5b600182019050919050565b7f4e487b7100000000000000000000000000000000000000000000000000000000600052602260045260246000fd5b60006002820490506001821680610db357607f821691505b602082108103610dc657610dc5610d6c565b5b50919050565b60008190508160005260206000209050919050565b60006020601f8301049050919050565b600082821b905092915050565b600060088302610e2e7fffffffffffffffffffffffffffffffffffffffffffffffffffffffffffffffff82610df1565b610e388683610df1565b95508019841693508086168417925050509392505050565b6000819050919050565b6000610e75610e70610e6b8461065b565b610e50565b61065b565b9050919050565b6000819050919050565b610e8f83610e5a565b610ea3610e9b82610e7c565b848454610dfe565b825550505050565b600090565b610eb8610eab565b610ec3818484610e86565b505050565b5b81811015610ee757610edc600082610eb0565b600181019050610ec9565b5050565b601f821115610f2c57610efd81610dcc565b610f0684610de1565b81016020851015610f15578190505b610f29610f2185610de1565b830182610ec8565b50505b505050565b600082821c905092915050565b6000610f4f60001984600802610f31565b1980831691505092915050565b6000610f688383610f3e565b9150826002028217905092915050565b610f81826106ea565b67ffffffffffffffff811115610f9a57610f9961098e565b5b610fa48254610d9b565b610faf828285610eeb565b600060209050601f831160018114610fe25760008415610fd0578287015190505b610fda8582610f5c565b865550611042565b601f198416610ff086610dcc565b60005b8281101561101857848901518255600182019150602085019450602081019050610ff3565b868310156110355784890151611031601f891682610f3e565b8355505b6001600288020188555050505b50505050505056fea26469706673582212208753e6371ba794391f7672bacba9139bb6d92405ead5096562760929096d458364736f6c63430008130033",
  "immutableReferences": {},
  "source": "// SPDX-License-Identifier: MIT\npragma solidity ^0.8.0;\n \ncontract Voting {\n    struct Voter {\n        uint id;\n        bool isVoted;\n        bool isPrivileged;\n    }\n \n    struct Candidate {\n        string name;\n        uint id;\n        uint voteCount;\n    }\n \n    address[] public privilegedVoters;\n    mapping(address => Voter) public voters;\n    Candidate[] public candidates;\n \n    constructor(address[] memory _privilegedVoters) {\n        for (uint i = 0; i < _privilegedVoters.length; i++) {\n            voters[_privilegedVoters[i]] = Voter(i, false, true);\n            privilegedVoters.push(_privilegedVoters[i]);\n        }\n    }\n \n    function addCandidate(string memory _name) public {\n        candidates.push(Candidate(_name, candidates.length, 0));\n    }\n \n    function vote(uint _candidateId) public {\n        require(voters[msg.sender].isPrivileged, \"You do not have the right to vote\");\n        require(!voters[msg.sender].isVoted, \"You have already voted\");\n \n        voters[msg.sender].isVoted = true;\n        candidates[_candidateId].voteCount++;\n    }\n \n    function getCandidates() public view returns (Candidate[] memory) {\n        return candidates;\n    }\n \n    function getVoteCount(uint _candidateId) public view returns (uint) {\n        return candidates[_candidateId].voteCount;\n    }\n}\n",
  "sourcePath": "D:\\E\\voting-dapp\\contracts\\Voting.sol",
  "compiler": {
    "name": "solc",
    "version": "0.8.19+commit.7dd6d404.Emscripten.clang"
  },
  "schemaVersion": "3.4.16",
  "updatedAt": "2024-08-27T14:18:30.162Z",
  "networkType": "ethereum",
  "devdoc": {
    "kind": "dev",
    "methods": {},
    "version": 1
  },
  "userdoc": {
    "kind": "user",
    "methods": {},
    "version": 1
  }
}