{
  "contractName": "Voting",
  "abi": [
    {
      "inputs": [
        {
          "internalType": "address[]",
          "name": "_privilegedVoters",
          "type": "address[]"
        }
      ],
      "stateMutability": "nonpayable",
      "type": "constructor"
    },
    {
      "inputs": [
        {
          "internalType": "uint256",
          "name": "",
          "type": "uint256"
        }
      ],
      "name": "candidates",
      "outputs": [
        {
          "internalType": "string",
          "name": "name",
          "type": "string"
        },
        {
          "internalType": "uint256",
          "name": "id",
          "type": "uint256"
        },
        {
          "internalType": "uint256",
          "name": "voteCount",
          "type": "uint256"
        }
      ],
      "stateMutability": "view",
      "type": "function"
    },
    {
      "inputs": [
        {
          "internalType": "uint256",
          "name": "",
          "type": "uint256"
        }
      ],
      "name": "privilegedVoters",
      "outputs": [
        {
          "internalType": "address",
          "name": "",
          "type": "address"
        }
      ],
      "stateMutability": "view",
      "type": "function"
    },
    {
      "inputs": [
        {
          "internalType": "address",
          "name": "",
          "type": "address"
        }
      ],
      "name": "voters",
      "outputs": [
        {
          "internalType": "uint256",
          "name": "id",
          "type": "uint256"
        },
        {
          "internalType": "bool",
          "name": "isVoted",
          "type": "bool"
        },
        {
          "internalType": "bool",
          "name": "isPrivileged",
          "type": "bool"
        }
      ],
      "stateMutability": "view",
      "type": "function"
    },
    {
      "inputs": [
        {
          "internalType": "string",
          "name": "_name",
          "type": "string"
        }
      ],
      "name": "addCandidate",
      "outputs": [],
      "stateMutability": "nonpayable",
      "type": "function"
    },
    {
      "inputs": [
        {
          "internalType": "uint256",
          "name": "_candidateId",
          "type": "uint256"
        }
      ],
      "name": "vote",
      "outputs": [],
      "stateMutability": "nonpayable",
      "type": "function"
    },
    {
      "inputs": [],
      "name": "getCandidates",
      "outputs": [
        {
          "components": [
            {
              "internalType": "string",
              "name": "name",
              "type": "string"
            },
            {
              "internalType": "uint256",
              "name": "id",
              "type": "uint256"
            },
            {
              "internalType": "uint256",
              "name": "voteCount",
              "type": "uint256"
            }
          ],
          "internalType": "struct Voting.Candidate[]",
          "name": "",
          "type": "tuple[]"
        }
      ],
      "stateMutability": "view",
      "type": "function"
    },
    {
      "inputs": [
        {
          "internalType": "uint256",
          "name": "_candidateId",
          "type": "uint256"
        }
      ],
      "name": "getVoteCount",
      "outputs": [
        {
          "internalType": "uint256",
          "name": "",
          "type": "uint256"
        }
      ],
      "stateMutability": "view",
      "type": "function"
    }
  ],
  "bytecode": "0x608060405234801561000f575f80fd5b506040516113a63803806113a683398181016040528101906100319190610345565b5f5b81518110156101835760405180606001604052808281526020015f151581526020016001151581525060015f8484815181106100725761007161038c565b5b602002602001015173ffffffffffffffffffffffffffffffffffffffff1673ffffffffffffffffffffffffffffffffffffffff1681526020019081526020015f205f820151815f01556020820151816001015f6101000a81548160ff02191690831515021790555060408201518160010160016101000a81548160ff0219169083151502179055509050505f8282815181106101115761011061038c565b5b6020026020010151908060018154018082558091505060019003905f5260205f20015f9091909190916101000a81548173ffffffffffffffffffffffffffffffffffffffff021916908373ffffffffffffffffffffffffffffffffffffffff1602179055508080600101915050610033565b50506103b9565b5f604051905090565b5f80fd5b5f80fd5b5f80fd5b5f601f19601f8301169050919050565b7f4e487b71000000000000000000000000000000000000000000000000000000005f52604160045260245ffd5b6101e58261019f565b810181811067ffffffffffffffff82111715610204576102036101af565b5b80604052505050565b5f61021661018a565b905061022282826101dc565b919050565b5f67ffffffffffffffff821115610241576102406101af565b5b602082029050602081019050919050565b5f80fd5b5f73ffffffffffffffffffffffffffffffffffffffff82169050919050565b5f61027f82610256565b9050919050565b61028f81610275565b8114610299575f80fd5b50565b5f815190506102aa81610286565b92915050565b5f6102c26102bd84610227565b61020d565b905080838252602082019050602084028301858111156102e5576102e4610252565b5b835b8181101561030e57806102fa888261029c565b8452602084019350506020810190506102e7565b5050509392505050565b5f82601f83011261032c5761032b61019b565b5b815161033c8482602086016102b0565b91505092915050565b5f6020828403121561035a57610359610193565b5b5f82015167ffffffffffffffff81111561037757610376610197565b5b61038384828501610318565b91505092915050565b7f4e487b71000000000000000000000000000000000000000000000000000000005f52603260045260245ffd5b610fe0806103c65f395ff3fe608060405234801561000f575f80fd5b506004361061007b575f3560e01c8063393032fe11610059578063393032fe146100eb578063462e91ec1461011b578063a3ec138d14610137578063b2c2f2e8146101695761007b565b80630121b93f1461007f57806306a49fce1461009b5780633477ee2e146100b9575b5f80fd5b6100996004803603810190610094919061065d565b610199565b005b6100a3610345565b6040516100b0919061080f565b60405180910390f35b6100d360048036038101906100ce919061065d565b610444565b6040516100e293929190610886565b60405180910390f35b6101056004803603810190610100919061065d565b6104ff565b6040516101129190610901565b60405180910390f35b61013560048036038101906101309190610a46565b610539565b005b610151600480360381019061014c9190610ab7565b6105ae565b60405161016093929190610afc565b60405180910390f35b610183600480360381019061017e919061065d565b6105ed565b6040516101909190610b31565b60405180910390f35b60015f3373ffffffffffffffffffffffffffffffffffffffff1673ffffffffffffffffffffffffffffffffffffffff1681526020019081526020015f2060010160019054906101000a900460ff16610226576040517f08c379a000000000000000000000000000000000000000000000000000000000815260040161021d90610bba565b60405180910390fd5b60015f3373ffffffffffffffffffffffffffffffffffffffff1673ffffffffffffffffffffffffffffffffffffffff1681526020019081526020015f206001015f9054906101000a900460ff16156102b3576040517f08c379a00000000000000000000000000000000000000000000000000000000081526004016102aa90610c22565b60405180910390fd5b6001805f3373ffffffffffffffffffffffffffffffffffffffff1673ffffffffffffffffffffffffffffffffffffffff1681526020019081526020015f206001015f6101000a81548160ff0219169083151502179055506002818154811061031e5761031d610c40565b5b905f5260205f2090600302016002015f81548092919061033d90610c9a565b919050555050565b60606002805480602002602001604051908101604052809291908181526020015f905b8282101561043b578382905f5260205f2090600302016040518060600160405290815f8201805461039890610d0e565b80601f01602080910402602001604051908101604052809291908181526020018280546103c490610d0e565b801561040f5780601f106103e65761010080835404028352916020019161040f565b820191905f5260205f20905b8154815290600101906020018083116103f257829003601f168201915b505050505081526020016001820154815260200160028201548152505081526020019060010190610368565b50505050905090565b60028181548110610453575f80fd5b905f5260205f2090600302015f91509050805f01805461047290610d0e565b80601f016020809104026020016040519081016040528092919081815260200182805461049e90610d0e565b80156104e95780601f106104c0576101008083540402835291602001916104e9565b820191905f5260205f20905b8154815290600101906020018083116104cc57829003601f168201915b5050505050908060010154908060020154905083565b5f818154811061050d575f80fd5b905f5260205f20015f915054906101000a900473ffffffffffffffffffffffffffffffffffffffff1681565b6002604051806060016040528083815260200160028054905081526020015f815250908060018154018082558091505060019003905f5260205f2090600302015f909190919091505f820151815f0190816105949190610edb565b506020820151816001015560408201518160020155505050565b6001602052805f5260405f205f91509050805f015490806001015f9054906101000a900460ff16908060010160019054906101000a900460ff16905083565b5f6002828154811061060257610601610c40565b5b905f5260205f209060030201600201549050919050565b5f604051905090565b5f80fd5b5f80fd5b5f819050919050565b61063c8161062a565b8114610646575f80fd5b50565b5f8135905061065781610633565b92915050565b5f6020828403121561067257610671610622565b5b5f61067f84828501610649565b91505092915050565b5f81519050919050565b5f82825260208201905092915050565b5f819050602082019050919050565b5f81519050919050565b5f82825260208201905092915050565b8281835e5f83830152505050565b5f601f19601f8301169050919050565b5f6106f3826106b1565b6106fd81856106bb565b935061070d8185602086016106cb565b610716816106d9565b840191505092915050565b61072a8161062a565b82525050565b5f606083015f8301518482035f86015261074a82826106e9565b915050602083015161075f6020860182610721565b5060408301516107726040860182610721565b508091505092915050565b5f6107888383610730565b905092915050565b5f602082019050919050565b5f6107a682610688565b6107b08185610692565b9350836020820285016107c2856106a2565b805f5b858110156107fd57848403895281516107de858261077d565b94506107e983610790565b925060208a019950506001810190506107c5565b50829750879550505050505092915050565b5f6020820190508181035f830152610827818461079c565b905092915050565b5f82825260208201905092915050565b5f610849826106b1565b610853818561082f565b93506108638185602086016106cb565b61086c816106d9565b840191505092915050565b6108808161062a565b82525050565b5f6060820190508181035f83015261089e818661083f565b90506108ad6020830185610877565b6108ba6040830184610877565b949350505050565b5f73ffffffffffffffffffffffffffffffffffffffff82169050919050565b5f6108eb826108c2565b9050919050565b6108fb816108e1565b82525050565b5f6020820190506109145f8301846108f2565b92915050565b5f80fd5b5f80fd5b7f4e487b71000000000000000000000000000000000000000000000000000000005f52604160045260245ffd5b610958826106d9565b810181811067ffffffffffffffff8211171561097757610976610922565b5b80604052505050565b5f610989610619565b9050610995828261094f565b919050565b5f67ffffffffffffffff8211156109b4576109b3610922565b5b6109bd826106d9565b9050602081019050919050565b828183375f83830152505050565b5f6109ea6109e58461099a565b610980565b905082815260208101848484011115610a0657610a0561091e565b5b610a118482856109ca565b509392505050565b5f82601f830112610a2d57610a2c61091a565b5b8135610a3d8482602086016109d8565b91505092915050565b5f60208284031215610a5b57610a5a610622565b5b5f82013567ffffffffffffffff811115610a7857610a77610626565b5b610a8484828501610a19565b91505092915050565b610a96816108e1565b8114610aa0575f80fd5b50565b5f81359050610ab181610a8d565b92915050565b5f60208284031215610acc57610acb610622565b5b5f610ad984828501610aa3565b91505092915050565b5f8115159050919050565b610af681610ae2565b82525050565b5f606082019050610b0f5f830186610877565b610b1c6020830185610aed565b610b296040830184610aed565b949350505050565b5f602082019050610b445f830184610877565b92915050565b7f596f7520646f206e6f7420686176652074686520726967687420746f20766f745f8201527f6500000000000000000000000000000000000000000000000000000000000000602082015250565b5f610ba460218361082f565b9150610baf82610b4a565b604082019050919050565b5f6020820190508181035f830152610bd181610b98565b9050919050565b7f596f75206861766520616c726561647920766f746564000000000000000000005f82015250565b5f610c0c60168361082f565b9150610c1782610bd8565b602082019050919050565b5f6020820190508181035f830152610c3981610c00565b9050919050565b7f4e487b71000000000000000000000000000000000000000000000000000000005f52603260045260245ffd5b7f4e487b71000000000000000000000000000000000000000000000000000000005f52601160045260245ffd5b5f610ca48261062a565b91507fffffffffffffffffffffffffffffffffffffffffffffffffffffffffffffffff8203610cd657610cd5610c6d565b5b600182019050919050565b7f4e487b71000000000000000000000000000000000000000000000000000000005f52602260045260245ffd5b5f6002820490506001821680610d2557607f821691505b602082108103610d3857610d37610ce1565b5b50919050565b5f819050815f5260205f209050919050565b5f6020601f8301049050919050565b5f82821b905092915050565b5f60088302610d9a7fffffffffffffffffffffffffffffffffffffffffffffffffffffffffffffffff82610d5f565b610da48683610d5f565b95508019841693508086168417925050509392505050565b5f819050919050565b5f610ddf610dda610dd58461062a565b610dbc565b61062a565b9050919050565b5f819050919050565b610df883610dc5565b610e0c610e0482610de6565b848454610d6b565b825550505050565b5f90565b610e20610e14565b610e2b818484610def565b505050565b5b81811015610e4e57610e435f82610e18565b600181019050610e31565b5050565b601f821115610e9357610e6481610d3e565b610e6d84610d50565b81016020851015610e7c578190505b610e90610e8885610d50565b830182610e30565b50505b505050565b5f82821c905092915050565b5f610eb35f1984600802610e98565b1980831691505092915050565b5f610ecb8383610ea4565b9150826002028217905092915050565b610ee4826106b1565b67ffffffffffffffff811115610efd57610efc610922565b5b610f078254610d0e565b610f12828285610e52565b5f60209050601f831160018114610f43575f8415610f31578287015190505b610f3b8582610ec0565b865550610fa2565b601f198416610f5186610d3e565b5f5b82811015610f7857848901518255600182019150602085019450602081019050610f53565b86831015610f955784890151610f91601f891682610ea4565b8355505b6001600288020188555050505b50505050505056fea26469706673582212202e8bf46563d7bbe1ae765a8bcf90ee5c6d46e7ac96be92a0f46ea636b3f15b7e64736f6c634300081a0033",
  "immutableReferences": {},
  "source": "pragma solidity ^0.8.0;\r\n \r\ncontract Voting {\r\n    struct Voter {\r\n        uint id;\r\n        bool isVoted;\r\n        bool isPrivileged;\r\n    }\r\n \r\n    struct Candidate {\r\n        string name;\r\n        uint id;\r\n        uint voteCount;\r\n    }\r\n \r\n    address[] public privilegedVoters;\r\n    mapping(address => Voter) public voters;\r\n    Candidate[] public candidates;\r\n \r\n    constructor(address[] memory _privilegedVoters) {\r\n        for (uint i = 0; i < _privilegedVoters.length; i++) {\r\n            voters[_privilegedVoters[i]] = Voter(i, false, true);\r\n            privilegedVoters.push(_privilegedVoters[i]);\r\n        }\r\n    }\r\n \r\n    function addCandidate(string memory _name) public {\r\n        candidates.push(Candidate(_name, candidates.length, 0));\r\n    }\r\n \r\n    function vote(uint _candidateId) public {\r\n        require(voters[msg.sender].isPrivileged, \"You do not have the right to vote\");\r\n        require(!voters[msg.sender].isVoted, \"You have already voted\");\r\n \r\n        voters[msg.sender].isVoted = true;\r\n        candidates[_candidateId].voteCount++;\r\n    }\r\n \r\n    function getCandidates() public view returns (Candidate[] memory) {\r\n        return candidates;\r\n    }\r\n \r\n    function getVoteCount(uint _candidateId) public view returns (uint) {\r\n        return candidates[_candidateId].voteCount;\r\n    }\r\n}\r\n",
  "sourcePath": "C:\\Users\\lemin\\OneDrive\\Documents\\blockchain\\voting-project\\contracts\\Voting.sol",
  "compiler": {
    "name": "solc",
    "version": "0.8.26+commit.8a97fa7a.Emscripten.clang"
  },
  "schemaVersion": "3.4.16",
  "updatedAt": "2024-08-26T12:05:32.358Z",
  "devdoc": {
    "kind": "dev",
    "methods": {},
    "version": 1
  },
  "userdoc": {
    "kind": "user",
    "methods": {},
    "version": 1
  }
}